:020000040800F2
:10000000680600203902000875020008770200081F
:10001000790200087B0200087D0200080000000051
:100020000000000000000000000000007F02000847
:100030008102000800000000830200088502000819
:10004000870200088702000887020008870200086C
:10005000870200088702000887020008870200085C
:10006000870200088702000887020008870200084C
:10007000870200088702000887020008870200083C
:10008000870200088702000887020008870200082C
:10009000870200088702000887020008870200081C
:1000A000870200088702000887020008870200080C
:1000B00087020008870200088702000887020008FC
:1000C00087020008870200088702000887020008EC
:1000D00087020008870200088702000887020008DC
:1000E00087020008870200088702000887020008CC
:1000F00087020008870200088702000887020008BC
:1001000087020008870200088702000887020008AB
:10011000870200088702000887020008870200089B
:10012000870200088702000887020008870200088B
:10013000870200088702000887020008870200087B
:10014000870200088702000887020008870200086B
:10015000870200088702000887020008870200085B
:10016000870200088702000887020008870200084B
:1001700087020008870200088702000800000000CC
:10018000870200088702000800F002F800F045F836
:100190000AA090E8000C82448344AAF10107DA45E2
:1001A00001D100F03AF8AFF2090EBAE80F0013F0EF
:1001B000010F18BFFB1A43F001031847400D000060
:1001C000600D0000103A24BF78C878C1FAD85207F1
:1001D00024BF30C830C144BF04680C6070470000C1
:1001E0000023002400250026103A28BF78C1FBD840
:1001F000520728BF30C148BF0B6070471FB500F0E1
:1002000077FE00F09BFB04000020002100F05AFE66
:10021000401C60601FBD10B510BD00F055F91146BF
:10022000FFF7ECFF00F0E0FD00F072FB03B4FFF716
:10023000F2FF03BC00F086FB16481749174B9942A2
:100240003CBF50F8042B41F8042BF8D314494FF06D
:1002500000028B4238BF43F8042BFAD3DFF8440086
:10026000016841F470010160BFF34F8FBFF36F8FDE
:100270000D480047FEE7FEE7FEE7FEE7FEE7FEE784
:10028000FEE7FEE7FEE7FEE708480949094A0A4B90
:10029000704700002C10000800000020080000201B
:1002A0006806002088ED00E0890100086800002051
:1002B0006806002068020020680200200FB404498C
:1002C00010B503AA029800F08BF810BC5DF814FB7F
:1002D000000000200FB400B589B00BA86A4600905A
:1002E00003480A9900F08EF809B05DF814FB00008D
:1002F000040000202DE9FF5F4FF0000899461446E6
:1003000046469169D2E901A7DDF838B001988847DF
:10031000054659EA0B0005D009E0A1690198761C51
:1003200088470546216A284688470028F5D1681C79
:1003300003D05FEACA7005D015E04FF0FF3004B07B
:1003400000F048B82068011D2160D0F800800AE064
:100350005FEACA7001D108F8015BA169761C0198B7
:100360007F1E88470546002F1ADD681C18D0B9F19A
:10037000000F0DD0E81705EBD060421120F01F00F0
:1003800059F822102A1A012090400142E0D107E0DA
:10039000BBF1000FDCD12846216A88470028D7D05E
:1003A000E16901988847BBF1000F07D1002E05DDF8
:1003B0005FEACA7002D1002188F80010A068B84234
:1003C00003DDBBF1000F03D017B16FF00100B6E7FA
:1003D0003046B4E730BCBDE8C09F704770477047F7
:1003E000074B70B50D467B4400F01DF804462846C7
:1003F00000F066F810B14FF0FF3070BD204670BDC0
:10040000E3090000034B7B449361034B7B44D361BE
:1004100000F022B8AF0900006B00000001694A1C1F
:1004200002610878704700B58FB0CDE90131002135
:10043000059105497944CDE903101146684600F05D
:1004400071F80FB000BD0000E5FFFFFF0268114426
:100450001378016018467047D160054979445161AD
:1004600004497944116200211161114600F06EB80F
:10047000EDFFFFFFAD000000704710B54FF0FF34F7
:10048000C1688A020FD5036B42689A420BD10146BC
:1004900090F82520104600F017FA401C01D12046A4
:1004A00010BD002010BD11F0C00FF8D102694168E5
:1004B0009142F4D90268491E521CC0E90021F0E7BC
:1004C000007B00F080007047754600F02BFAAE46C6
:1004D00005006946534620F00700854618B020B550
:1004E000FFF7D2FEBDE820404FF000064FF00007B6
:1004F0004FF000084FF0000B21F00701AC46ACE8CC
:10050000C009ACE8C009ACE8C009ACE8C0098D4638
:10051000704710B5044600F009FA0068005D00F06D
:10052000010010BD2DE9F04106460024D6E9017016
:10053000F5688046304603E04146B847641C3046C3
:10054000A8470028F8D12046BDE8F0812DE9F34FF7
:100550004FF0000A0C4656468DB001200C9001F178
:100560000C000B9062690B9801219047051E2DD05D
:10057000252D2CD0216A8847C0B162690B980121D2
:100580009047216A88470028F7D16269411E0B987D
:10059000904700E0761CA1690D988847216A88473A
:1005A0000028F7D1E1690D988847DBE7A1690D982C
:1005B0008847A842074601D1761CD3E7E1690D9828
:1005C00088477F1C02D1BAF1000F6FD06CE16269DD
:1005D0000B9800273D46394690472A2804D1626986
:1005E0000B98012190470125DFF8D08262690B98B2
:1005F00001219047A0F130010A290AD24745E5DCE4
:1006000007EB870100EB4107303FDFD445F01005D1
:10061000ECE7E90601D46FF000476C280AD04C28BB
:1006200014D0682815D06A280DD074281CD07A28D8
:100630001AD01DE062690B98012190476C2802D006
:1006400045F0040514E045F002050DE045F02005F5
:100650000AE062690B9801219047682802D045F0B2
:10066000080505E045F4006562690B980121904793
:10067000C4E9015765283DD019DC58287AD00CDC34
:10068000452837D004DC252826D041289ED131E0EA
:1006900046282FD0472899D12CE05B2877D06128B5
:1006A00028D063287CD0642823D15AE0F7E06F2853
:1006B00048D008DC66281DD067281BD0692821D0C7
:1006C0006E2816D127E0702845D0732868D0752889
:1006D00047D078280DD14DE0A1690D98884725288D
:1006E00005463FF469AFE1690D9888476D1C3FF4FA
:1006F0006AAFD9E00D9923466A466FF00100AFF367
:100700000080C6E045F0400023464FF000026060E4
:10071000A80736D43EE0E8077FF447AF2068011D04
:1007200021600068290501D506701BE7290701D55E
:10073000068017E7A90703D5F117C0E9006111E7A3
:1007400006600FE745F0400023464FF00802606066
:10075000A80716D41EE040F60E0125EA01006060ED
:1007600016E045F0400023464FF00A026060A807FB
:1007700007D40FE045F040006060A80708D5234685
:1007800010220D996FF00100AFF3008081E007E0C7
:10079000102223460D996FF00100AFF3008078E03E
:1007A0004FF0000963284F46C8464B46CB4602D05F
:1007B0005B2807D039E02079C00601D40120A06071
:1007C000012732E06269D4F80CB00B980121904700
:1007D0005E2807D14FF0010949466269D4F80CB090
:1007E0000B989047216939B900210A4603AB43F8B9
:1007F0002120491C0829FADBD8B3216949B308F143
:10080000010862690B98012190475D28F4D1B9F184
:10081000000F09D0002003A951F82020D24341F84D
:100820002020401C0828F7DB03AB20690028207932
:100830004FEA40701ED05B462246CDF80080CDE9DD
:1008400001970D9900286FF0010020DAAFF30080C6
:100850001FE0C11703AA00EBD1614B1121F01F016A
:1008600002EB8302411A136801208840034313609E
:10087000C7E719E00D99224600286FF001000097A4
:1008800002DAAFF3008004E0FFF734FD01E0AFF3DC
:10089000008000280ADA401C06D10C9820B14FF0E5
:1008A000FF300FB000F00CB85046FAE7E90701D16D
:1008B0000AF1010A064400200C9053E6CCCCCC0C83
:1008C00030BCBDE8C08F0000CA68431C0FD00D4B80
:1008D0001A420CD1D3070AD081F825004B680B636C
:1008E00000238B6012F0C06F0B6003D004E04FF068
:1008F000FF30704742F00072034B1A40034B1A431B
:10090000CA60704780200800BFFFDFFF001048006A
:1009100010B50446AFF300802046BDE81040FFF755
:1009200085BC0000004870470800002010B500F0AA
:1009300005F8001D10BD00BF8D0500000048704780
:100940002800002001491820ABBEFEE72600020067
:100950004FF0013C50F8042B51F8043B9A4221D14E
:10096000A2EB0C03934313EACC1317D150F8042BDA
:1009700051F8043B9A4215D1A2EB0C03934313EABE
:10098000CC130BD150F8042B51F8043B9A4209D1F7
:10099000A2EB0C03934313EACC13DBD04FF000001F
:1009A000704700BFD01A01BAB1FA81F101F0180105
:1009B00022FA01F0CB40C1F12001DBB2C0B2C01A73
:1009C0002CFA01F3D11A914311EAC311E6D1704711
:1009D000704700005E49096821F007015C4A116018
:1009E0001146096841F0020111605A49096841F451
:1009F0008071584A116000BF5649096801F480614E
:100A00000029F9D010205349496821F0F851514A82
:100A100051601146496841EA006151601146096818
:100A200021F08071116000BF4A49096801F000712E
:100A3000B1F1007FF8D04749C96821F00301454A68
:100A4000D1601146C96841F00201D1601146C96800
:100A500021F4FE4141F4A051D1601146C96821F052
:100A6000700141F01001D1601146C96821F0C061E8
:100A7000D1601146C96841F08071D16011460968A2
:100A800041F08071116000BF3249096801F00071C6
:100A90000029F9D02F49896821F003012D4A91607E
:100AA0001146896841F00301916000BF29498968B6
:100AB00001F00C010C29F9D12649896821F0F001D7
:100AC000244A91601146896821F4E06191601146E1
:100AD000896821F4605191601146096821F08061B4
:100AE000116000BF1B49096801F08061B1F1806F9E
:100AF000F8D01849096921F4FE41164A11611146DE
:100B0000096941F4C05111611146096941F400318C
:100B100011611146096941F480311161114609687A
:100B200041F08061116000BF0A49096801F08061ED
:100B30000029F9D007498831096821F44001054AA4
:100B4000C2F888101146096E41F400111166704711
:100B500000200240001002401648C06C40F0010026
:100B60001449C8644FF09040006820F0F0004FF046
:100B7000904108600846006840F0A0000860084600
:100B8000006A20F47F4008620846006A40F4EE40A4
:100B900008620846806840F0F00088600846C06837
:100BA00020F0F000C8600846406820F00C00486063
:100BB000704700000010024000B50D48806D40F401
:100BC00000300B4988650A488830006820F00C0026
:100BD000C1F888000846D0F8880040F00400C1F849
:100BE0008800FFF7B9FF034800F010F800BD0000CF
:100BF0000010024000440040642242430723B2FB3D
:100C0000F3F100BF4A1E111EFCD17047016821F0AC
:100C100001010160016821F010210160016821F4E7
:100C200000410160416821F44051416042F28D0170
:100C3000C160016841F00C0101601E4988421BD16E
:100C4000016841F020010160016821F0400101606C
:100C5000016821F010010160016821F0800101604C
:100C6000016821F480710160016821F04001016098
:100C7000016821F0010101600F49884209D1016A30
:100C800041F0400101620D49096841F0C0010B4A81
:100C90001160016841F00101016000BFC16901F408
:100CA00000110029FAD000BFC16901F480010029B8
:100CB000FAD07047004C0040004400400838014022
:100CC000014600BFC86900F020000028FAD0888CD7
:100CD000C0B27047F0B504460E46174600250CE03A
:100CE00000BFE06900F080000028FAD0705D208528
:100CF0004FF49670FFF780FF6D1CBD42F0D300BF2C
:100D0000E06900F040000028FAD0E06920F04000DF
:100D1000E061F0BD08B50FA0FFF7D0FA694618A052
:100D2000FFF7D8FA9DF800004E2803D09DF8000088
:100D30006E2803D113A0FFF7C1FA0AE09DF8000066
:100D4000592803D09DF80000792802D115A0FFF79B
:100D5000B5FA08BD41726520796F7520656E726FB6
:100D60006C6C656420696E2045434520323032202A
:100D70002859206F72204E20293A0D0A00000000E9
:100D800025630000596F752073686F756C64206E61
:100D90006F7420626520686572652121210D0A0D3E
:100DA0000A00000057656C636F6D65212121200AE0
:100DB0000D0A0D0A0000000070B505460248FFF755
:100DC0007FFF0446204670BD0044004038B504460D
:100DD0000D46E0B20090012269460248FFF77AFF13
:100DE000204638BD00440040FFF7F4FDFFF7E4FE65
:100DF000FFF790FF3148C06C20F005002F49C86410
:100E00000846C06C40F00500C8644FF09040006890
:100E100020F440604FF0904108600846006840F4BC
:100E2000806008600846406820F02000486008465E
:100E3000406848600846C06820F44060C8600846C2
:100E4000C068C8601E48006820F040601C49086007
:100E50000846006808601A480C30006820F04060BE
:100E600017490C3108600846006808600025002416
:100E700023E0134910310968C1F34030D8B95DB996
:100E800054B94FF09041496941F020014FF0904230
:100E90005161012501240FE074B94FF09041496977
:100EA00021F020014FF09042516111464969516192
:100EB0000025012400E0002400BFDAE70010024012
:100EC0000008004810B500290AD00878002807D08B
:100ED00005487844FFF73CFD002801D0002010BDF4
:100EE0000248784410BD00004A00000042000000A3
:100EF0004FF04070E1EE100A704700002C1000081F
:100F00000000002008000000C401000834100008A0
:100F10000800002060060000E00100081001000049
:100F200043000000F8FFFFFF0040404040404040C9
:100F300040404141414141404040404040404040AC
:100F40004040404040404040400502020202020250
:100F5000020202020202020202202020202020209F
:100F600020202002020202020202909090909090B3
:100F70001010101010101010101010101010101071
:100F800010101010020202020202888888888888E5
:100F900008080808080808080808080808080808D1
:100FA00008080808020202024000000000000000D9
:100FB0000000000000000000000000000000000031
:100FC0000000000000000000000000000000000021
:100FD0000000000000000000000000000000000011
:100FE0000000000000000000000000000000000001
:100FF00000000000000000000000000000000000F1
:1010000000000000000000000000000000000000E0
:1010100000000000000000000000000000000000D0
:1010200000000000000000000000000000000000C0
:0410300000000000BC
:040000050800018965
:00000001FF
