:020000040800F2
:100000000006002089010008C5010008C70100089A
:10001000C9010008CB010008CD0100080000000064
:10002000000000000000000000000000CF010008F8
:10003000D101000800000000D3010008D50100082C
:10004000D7010008D7010008D7010008D701000830
:10005000D7010008D7010008D7010008D701000820
:10006000D7010008D7010008D7010008D701000810
:10007000D7010008D7010008D7010008D701000800
:10008000D7010008D7010008D7010008D7010008F0
:10009000D7010008D7010008D7010008D7010008E0
:1000A000D7010008D7010008D7010008D7010008D0
:1000B000D7010008D7010008D7010008D7010008C0
:1000C000D7010008D7010008D7010008D7010008B0
:1000D000D7010008D7010008D7010008D7010008A0
:1000E000D7010008D7010008D7010008D701000890
:1000F000D7010008D7010008D7010008D701000880
:10010000D7010008D7010008D7010008D70100086F
:10011000D7010008D7010008D7010008D70100085F
:10012000D7010008D7010008D7010008D70100084F
:10013000D7010008D7010008D7010008D70100083F
:10014000D7010008D7010008D7010008D70100082F
:10015000D7010008D7010008D7010008D70100081F
:10016000D7010008D7010008D7010008D70100080F
:10017000D7010008D7010008D701000800000000DF
:10018000D7010008D701000816481749174B9942B4
:100190003CBF50F8042B41F8042BF8D314494FF01E
:1001A00000028B4238BF43F8042BFAD3DFF8440037
:1001B000016841F470010160BFF34F8FBFF36F8F8F
:1001C0000D480047FEE7FEE7FEE7FEE7FEE7FEE735
:1001D000FEE7FEE7FEE7FEE708480949094A0A4B41
:1001E00070470000B4050008000000200000002057
:1001F0000006002088ED00E0C10400080000002097
:100200000006002000020020000200207047704716
:100210007047000042F20001C4F20201086820F0B9
:10022000070008600A6841F2000042F00202C4F2CE
:1002300002000A60016841F48071016001684905AB
:10024000FCD5416821F0F8514160416841F080518E
:100250004160016821F08071016000BF016889017F
:10026000FCD4C168142221F00301C160C16841F0CF
:100270000201C160C16862F30E21C160C168012240
:1002800062F30611C160C16821F0C061C160C1683C
:1002900041F08071C160016841F08071016000BF70
:1002A00001688901FCD5816821F0030181608168C2
:1002B00041F00301816000BF816801F00C010C294D
:1002C000FAD1816821F0F0018160816821F4E06158
:1002D0008160816821F460518160016821F0806152
:1002E000016000BF01684901FCD4016921F4FE41AD
:1002F0000161016941F4C0510161016941F40031BA
:100300000161016941F480310161016841F080615E
:10031000016000BF01684901FCD5D0F8881021F4C4
:100320004001C0F88810016E41F400110166704769
:1003300041F24C00C4F20200016841F00101016089
:100340004FF09040016821F0F0010160016841F038
:10035000A00101602020C4F60000016821F47F4163
:100360000160016841F4EE41016050F8181C41F051
:10037000F00140F8181C50F8141C21F0F00140F86E
:10038000141C50F81C1C21F00C0140F81C1C704778
:1003900080B541F28800C4F2020050F8301C41F4EC
:1003A000003140F8301C016821F00C010160016847
:1003B00041F004010160FFF7BBFF44F20040C4F2CA
:1003C000000000F00BF880BD80B50A46014644F2FB
:1003D0000040C4F2000000F05DF880BD016844F206
:1003E000004221F0010101600168C4F2000221F025
:1003F000102101600168904221F4004101604168D0
:1004000021F44051416042F28D01C160016841F028
:100410000C01016022D044F60041C4F20001884280
:100420002CD1016841F020010160016821F04001F8
:100430000160016821F010010160016821F0800174
:100440000160016821F480710160016821F04001C0
:100450000160016821F0010101600FE044F22041D8
:10046000C4F200010A6842F040020A6043F6080143
:10047000C4F201010A6842F0C0020A60016841F05A
:1004800001010160C1698902FCD500BFC16949024F
:10049000FCD5704762B14FF0000C00BFC3691B066A
:1004A000FCD511F80C300CF1010C94450385F5D105
:1004B000C1694906FCD5C16921F04001C16170479D
:1004C0004FF006003849CA6C6FF3420242EA00025C
:1004D000CA644FF0000035490A686FF39B6242EA34
:1004E00000020A604FF000003049CA686FF39B6257
:1004F00042EA0002CA6045F250002D490A686FF3D3
:1005000007126FF30F3242EA00020A604FF0000058
:1005100027494A686FF383026FF3871242EA0002A9
:100520004A604FF000002249CA686FF307126FF368
:100530000F3242EA0002CA604FF000014FF00002A1
:100540004FF000002DE04FF0000309E003F101033C
:100550004FF0000401E004F10104B4F5196FFAD181
:10056000502BF3D1124B5C6961F3830462F387145F
:100570005C6101F10101042903D102F101024FF094
:100580000001022A05D1022903D14FF000014FF0EA
:100590000002064B1C69002C03DC4FF000014FF0F9
:1005A00000020128CFDBFEE70010024000080048EF
:0405B00000040048FB
:04000005080004C12A
:00000001FF
